{
  "_format": "hh-sol-artifact-1",
  "contractName": "StartupFunding",
  "sourceName": "contracts/InnoFund.sol",
  "abi": [
    {
      "inputs": [],
      "stateMutability": "nonpayable",
      "type": "constructor"
    },
    {
      "anonymous": false,
      "inputs": [
        {
          "indexed": false,
          "internalType": "uint256",
          "name": "id",
          "type": "uint256"
        },
        {
          "indexed": false,
          "internalType": "address",
          "name": "funder",
          "type": "address"
        },
        {
          "indexed": false,
          "internalType": "uint256",
          "name": "amount",
          "type": "uint256"
        }
      ],
      "name": "Funded",
      "type": "event"
    },
    {
      "anonymous": false,
      "inputs": [
        {
          "indexed": false,
          "internalType": "uint256",
          "name": "id",
          "type": "uint256"
        },
        {
          "indexed": false,
          "internalType": "address",
          "name": "creator",
          "type": "address"
        }
      ],
      "name": "IdeaPosted",
      "type": "event"
    },
    {
      "anonymous": false,
      "inputs": [
        {
          "indexed": false,
          "internalType": "uint256",
          "name": "id",
          "type": "uint256"
        },
        {
          "indexed": false,
          "internalType": "address",
          "name": "investor",
          "type": "address"
        },
        {
          "indexed": false,
          "internalType": "uint256",
          "name": "amount",
          "type": "uint256"
        },
        {
          "indexed": false,
          "internalType": "uint256",
          "name": "expectedReturn",
          "type": "uint256"
        }
      ],
      "name": "Invested",
      "type": "event"
    },
    {
      "inputs": [],
      "name": "admin",
      "outputs": [
        {
          "internalType": "address",
          "name": "",
          "type": "address"
        }
      ],
      "stateMutability": "view",
      "type": "function"
    },
    {
      "inputs": [
        {
          "internalType": "address",
          "name": "",
          "type": "address"
        }
      ],
      "name": "badges",
      "outputs": [
        {
          "internalType": "string",
          "name": "",
          "type": "string"
        }
      ],
      "stateMutability": "view",
      "type": "function"
    },
    {
      "inputs": [
        {
          "internalType": "uint256",
          "name": "id",
          "type": "uint256"
        }
      ],
      "name": "claimReturn",
      "outputs": [],
      "stateMutability": "nonpayable",
      "type": "function"
    },
    {
      "inputs": [
        {
          "internalType": "uint256",
          "name": "id",
          "type": "uint256"
        }
      ],
      "name": "donate",
      "outputs": [],
      "stateMutability": "payable",
      "type": "function"
    },
    {
      "inputs": [
        {
          "internalType": "address",
          "name": "",
          "type": "address"
        }
      ],
      "name": "donations",
      "outputs": [
        {
          "internalType": "uint256",
          "name": "",
          "type": "uint256"
        }
      ],
      "stateMutability": "view",
      "type": "function"
    },
    {
      "inputs": [
        {
          "internalType": "address",
          "name": "user",
          "type": "address"
        }
      ],
      "name": "getBadge",
      "outputs": [
        {
          "internalType": "string",
          "name": "",
          "type": "string"
        }
      ],
      "stateMutability": "view",
      "type": "function"
    },
    {
      "inputs": [
        {
          "internalType": "uint256",
          "name": "id",
          "type": "uint256"
        }
      ],
      "name": "getDeadline",
      "outputs": [
        {
          "internalType": "uint256",
          "name": "",
          "type": "uint256"
        }
      ],
      "stateMutability": "view",
      "type": "function"
    },
    {
      "inputs": [],
      "name": "getMyIdeas",
      "outputs": [
        {
          "components": [
            {
              "internalType": "address",
              "name": "creator",
              "type": "address"
            },
            {
              "internalType": "string",
              "name": "title",
              "type": "string"
            },
            {
              "internalType": "string",
              "name": "description",
              "type": "string"
            },
            {
              "internalType": "uint256",
              "name": "targetAmount",
              "type": "uint256"
            },
            {
              "internalType": "uint256",
              "name": "currentAmount",
              "type": "uint256"
            },
            {
              "internalType": "bool",
              "name": "isSuccess",
              "type": "bool"
            },
            {
              "internalType": "uint256",
              "name": "deadline",
              "type": "uint256"
            }
          ],
          "internalType": "struct StartupFunding.Idea[]",
          "name": "",
          "type": "tuple[]"
        }
      ],
      "stateMutability": "view",
      "type": "function"
    },
    {
      "inputs": [],
      "name": "ideaCount",
      "outputs": [
        {
          "internalType": "uint256",
          "name": "",
          "type": "uint256"
        }
      ],
      "stateMutability": "view",
      "type": "function"
    },
    {
      "inputs": [
        {
          "internalType": "uint256",
          "name": "",
          "type": "uint256"
        }
      ],
      "name": "ideas",
      "outputs": [
        {
          "internalType": "address",
          "name": "creator",
          "type": "address"
        },
        {
          "internalType": "string",
          "name": "title",
          "type": "string"
        },
        {
          "internalType": "string",
          "name": "description",
          "type": "string"
        },
        {
          "internalType": "uint256",
          "name": "targetAmount",
          "type": "uint256"
        },
        {
          "internalType": "uint256",
          "name": "currentAmount",
          "type": "uint256"
        },
        {
          "internalType": "bool",
          "name": "isSuccess",
          "type": "bool"
        },
        {
          "internalType": "uint256",
          "name": "deadline",
          "type": "uint256"
        }
      ],
      "stateMutability": "view",
      "type": "function"
    },
    {
      "inputs": [
        {
          "internalType": "uint256",
          "name": "id",
          "type": "uint256"
        },
        {
          "internalType": "uint256",
          "name": "expectedReturn",
          "type": "uint256"
        }
      ],
      "name": "invest",
      "outputs": [],
      "stateMutability": "payable",
      "type": "function"
    },
    {
      "inputs": [
        {
          "internalType": "uint256",
          "name": "",
          "type": "uint256"
        },
        {
          "internalType": "uint256",
          "name": "",
          "type": "uint256"
        }
      ],
      "name": "investments",
      "outputs": [
        {
          "internalType": "address",
          "name": "investor",
          "type": "address"
        },
        {
          "internalType": "uint256",
          "name": "amount",
          "type": "uint256"
        },
        {
          "internalType": "uint256",
          "name": "expectedReturn",
          "type": "uint256"
        },
        {
          "internalType": "bool",
          "name": "withdrawn",
          "type": "bool"
        }
      ],
      "stateMutability": "view",
      "type": "function"
    },
    {
      "inputs": [
        {
          "internalType": "uint256",
          "name": "id",
          "type": "uint256"
        },
        {
          "internalType": "uint256",
          "name": "newTarget",
          "type": "uint256"
        }
      ],
      "name": "lowerTargetAmount",
      "outputs": [],
      "stateMutability": "nonpayable",
      "type": "function"
    },
    {
      "inputs": [
        {
          "internalType": "uint256",
          "name": "id",
          "type": "uint256"
        }
      ],
      "name": "markSuccess",
      "outputs": [],
      "stateMutability": "nonpayable",
      "type": "function"
    },
    {
      "inputs": [
        {
          "internalType": "string",
          "name": "_title",
          "type": "string"
        },
        {
          "internalType": "string",
          "name": "_desc",
          "type": "string"
        },
        {
          "internalType": "uint256",
          "name": "_target",
          "type": "uint256"
        },
        {
          "internalType": "uint256",
          "name": "_durationDays",
          "type": "uint256"
        }
      ],
      "name": "postIdea",
      "outputs": [],
      "stateMutability": "nonpayable",
      "type": "function"
    },
    {
      "inputs": [
        {
          "internalType": "uint256",
          "name": "id",
          "type": "uint256"
        }
      ],
      "name": "refund",
      "outputs": [],
      "stateMutability": "nonpayable",
      "type": "function"
    },
    {
      "inputs": [
        {
          "internalType": "uint256",
          "name": "id",
          "type": "uint256"
        }
      ],
      "name": "withdrawDonations",
      "outputs": [],
      "stateMutability": "nonpayable",
      "type": "function"
    }
  ],
  "bytecode": "0x60806040526000600455348015601457600080fd5b5033600560006101000a81548173ffffffffffffffffffffffffffffffffffffffff021916908373ffffffffffffffffffffffffffffffffffffffff160217905550612f35806100656000396000f3fe6080604052600436106100fe5760003560e01c80638286227511610095578063c370423e11610064578063c370423e1461034c578063cc6cb19a14610389578063d87aa643146103c6578063f14faf6f146103e2578063f851a440146103fe576100fe565b8063828622751461026657806395b53837146102a3578063abc03e6f146102e6578063c254de881461030f576100fe565b80632c6ef770116100d15780632c6ef770146101ab578063388a7ec1146101d45780635875da13146101fd57806370bbfa261461023d576100fe565b8063011d07c0146101035780630b5f20bd1461012e5780630cd0c92a14610159578063278ecde114610182575b600080fd5b34801561010f57600080fd5b50610118610429565b6040516101259190611e81565b60405180910390f35b34801561013a57600080fd5b506101436107a0565b6040516101509190611eb2565b60405180910390f35b34801561016557600080fd5b50610180600480360381019061017b9190611f0d565b6107a6565b005b34801561018e57600080fd5b506101a960048036038101906101a49190611f0d565b6108ff565b005b3480156101b757600080fd5b506101d260048036038101906101cd919061206f565b610b4d565b005b3480156101e057600080fd5b506101fb60048036038101906101f69190611f0d565b610cda565b005b34801561020957600080fd5b50610224600480360381019061021f919061210e565b610e7d565b604051610234949392919061216c565b60405180910390f35b34801561024957600080fd5b50610264600480360381019061025f9190611f0d565b610ef7565b005b34801561027257600080fd5b5061028d60048036038101906102889190611f0d565b6110ed565b60405161029a9190611eb2565b60405180910390f35b3480156102af57600080fd5b506102ca60048036038101906102c59190611f0d565b61110c565b6040516102dd97969594939291906121fb565b60405180910390f35b3480156102f257600080fd5b5061030d6004803603810190610308919061210e565b61128b565b005b34801561031b57600080fd5b50610336600480360381019061033191906122a4565b61146c565b60405161034391906122d1565b60405180910390f35b34801561035857600080fd5b50610373600480360381019061036e91906122a4565b61153d565b60405161038091906122d1565b60405180910390f35b34801561039557600080fd5b506103b060048036038101906103ab91906122a4565b6115dd565b6040516103bd9190611eb2565b60405180910390f35b6103e060048036038101906103db919061210e565b6115f5565b005b6103fc60048036038101906103f79190611f0d565b6117c4565b005b34801561040a57600080fd5b50610413611b9c565b60405161042091906122f3565b60405180910390f35b60606000805b6004548110156104bd573373ffffffffffffffffffffffffffffffffffffffff1660008083815260200190815260200160002060000160009054906101000a900473ffffffffffffffffffffffffffffffffffffffff1673ffffffffffffffffffffffffffffffffffffffff16036104b05781806104ac9061233d565b9250505b808060010191505061042f565b5060008167ffffffffffffffff8111156104da576104d9611f44565b5b60405190808252806020026020018201604052801561051357816020015b610500611bc2565b8152602001906001900390816104f85790505b5090506000805b600454811015610796573373ffffffffffffffffffffffffffffffffffffffff1660008083815260200190815260200160002060000160009054906101000a900473ffffffffffffffffffffffffffffffffffffffff1673ffffffffffffffffffffffffffffffffffffffff1603610789576000808281526020019081526020016000206040518060e00160405290816000820160009054906101000a900473ffffffffffffffffffffffffffffffffffffffff1673ffffffffffffffffffffffffffffffffffffffff1673ffffffffffffffffffffffffffffffffffffffff16815260200160018201805461060f906123b4565b80601f016020809104026020016040519081016040528092919081815260200182805461063b906123b4565b80156106885780601f1061065d57610100808354040283529160200191610688565b820191906000526020600020905b81548152906001019060200180831161066b57829003601f168201915b505050505081526020016002820180546106a1906123b4565b80601f01602080910402602001604051908101604052809291908181526020018280546106cd906123b4565b801561071a5780601f106106ef5761010080835404028352916020019161071a565b820191906000526020600020905b8154815290600101906020018083116106fd57829003601f168201915b5050505050815260200160038201548152602001600482015481526020016005820160009054906101000a900460ff1615151515815260200160068201548152505083838151811061076f5761076e6123e5565b5b602002602001018190525081806107859061233d565b9250505b808060010191505061051a565b5081935050505090565b60045481565b60008060008381526020019081526020016000209050600560009054906101000a900473ffffffffffffffffffffffffffffffffffffffff1673ffffffffffffffffffffffffffffffffffffffff163373ffffffffffffffffffffffffffffffffffffffff161461084c576040517f08c379a000000000000000000000000000000000000000000000000000000000815260040161084390612460565b60405180910390fd5b8060060154421115610893576040517f08c379a000000000000000000000000000000000000000000000000000000000815260040161088a906124cc565b60405180910390fd5b8060030154816004015410156108de576040517f08c379a00000000000000000000000000000000000000000000000000000000081526004016108d590612538565b60405180910390fd5b60018160050160006101000a81548160ff0219169083151502179055505050565b600060016000838152602001908152602001600020905060005b8180549050811015610b48573373ffffffffffffffffffffffffffffffffffffffff1682828154811061094f5761094e6123e5565b5b906000526020600020906004020160000160009054906101000a900473ffffffffffffffffffffffffffffffffffffffff1673ffffffffffffffffffffffffffffffffffffffff161480156109d357508181815481106109b2576109b16123e5565b5b906000526020600020906004020160030160009054906101000a900460ff16155b15610b3b5760008084815260200190815260200160002060050160009054906101000a900460ff1615610a3b576040517f08c379a0000000000000000000000000000000000000000000000000000000008152600401610a32906125a4565b60405180910390fd5b600080848152602001908152602001600020600601544211610a92576040517f08c379a0000000000000000000000000000000000000000000000000000000008152600401610a8990612610565b60405180910390fd5b6001828281548110610aa757610aa66123e5565b5b906000526020600020906004020160030160006101000a81548160ff0219169083151502179055503373ffffffffffffffffffffffffffffffffffffffff166108fc838381548110610afc57610afb6123e5565b5b9060005260206000209060040201600101549081150290604051600060405180830381858888f19350505050158015610b39573d6000803e3d6000fd5b505b8080600101915050610919565b505050565b60006201518082610b5e9190612630565b42610b699190612672565b90506040518060e001604052803373ffffffffffffffffffffffffffffffffffffffff1681526020018681526020018581526020018481526020016000815260200160001515815260200182815250600080600454815260200190815260200160002060008201518160000160006101000a81548173ffffffffffffffffffffffffffffffffffffffff021916908373ffffffffffffffffffffffffffffffffffffffff1602179055506020820151816001019081610c289190612852565b506040820151816002019081610c3e9190612852565b50606082015181600301556080820151816004015560a08201518160050160006101000a81548160ff02191690831515021790555060c082015181600601559050507f329d7084c18b0b0a44c34a63fd378fe3dc5a1078bcef09aa2e6d05b5a8b4841e60045433604051610cb3929190612924565b60405180910390a160046000815480929190610cce9061233d565b91905055505050505050565b600080600083815260200190815260200160002090508060000160009054906101000a900473ffffffffffffffffffffffffffffffffffffffff1673ffffffffffffffffffffffffffffffffffffffff163373ffffffffffffffffffffffffffffffffffffffff1614610d82576040517f08c379a0000000000000000000000000000000000000000000000000000000008152600401610d7990612999565b60405180910390fd5b8060050160009054906101000a900460ff16610dd3576040517f08c379a0000000000000000000000000000000000000000000000000000000008152600401610dca90612a05565b60405180910390fd5b806003015481600401541015610e1e576040517f08c379a0000000000000000000000000000000000000000000000000000000008152600401610e1590612a71565b60405180910390fd5b600081600401549050600082600401819055503373ffffffffffffffffffffffffffffffffffffffff166108fc829081150290604051600060405180830381858888f19350505050158015610e77573d6000803e3d6000fd5b50505050565b60016020528160005260406000208181548110610e9957600080fd5b9060005260206000209060040201600091509150508060000160009054906101000a900473ffffffffffffffffffffffffffffffffffffffff16908060010154908060020154908060030160009054906101000a900460ff16905084565b600060016000838152602001908152602001600020905060005b81805490508110156110e8573373ffffffffffffffffffffffffffffffffffffffff16828281548110610f4757610f466123e5565b5b906000526020600020906004020160000160009054906101000a900473ffffffffffffffffffffffffffffffffffffffff1673ffffffffffffffffffffffffffffffffffffffff16148015610fcb5750818181548110610faa57610fa96123e5565b5b906000526020600020906004020160030160009054906101000a900460ff16155b156110db5760008084815260200190815260200160002060050160009054906101000a900460ff16611032576040517f08c379a000000000000000000000000000000000000000000000000000000000815260040161102990612add565b60405180910390fd5b6001828281548110611047576110466123e5565b5b906000526020600020906004020160030160006101000a81548160ff0219169083151502179055503373ffffffffffffffffffffffffffffffffffffffff166108fc83838154811061109c5761109b6123e5565b5b9060005260206000209060040201600201549081150290604051600060405180830381858888f193505050501580156110d9573d6000803e3d6000fd5b505b8080600101915050610f11565b505050565b6000806000838152602001908152602001600020600601549050919050565b60006020528060005260406000206000915090508060000160009054906101000a900473ffffffffffffffffffffffffffffffffffffffff1690806001018054611155906123b4565b80601f0160208091040260200160405190810160405280929190818152602001828054611181906123b4565b80156111ce5780601f106111a3576101008083540402835291602001916111ce565b820191906000526020600020905b8154815290600101906020018083116111b157829003601f168201915b5050505050908060020180546111e3906123b4565b80601f016020809104026020016040519081016040528092919081815260200182805461120f906123b4565b801561125c5780601f106112315761010080835404028352916020019161125c565b820191906000526020600020905b81548152906001019060200180831161123f57829003601f168201915b5050505050908060030154908060040154908060050160009054906101000a900460ff16908060060154905087565b600080600084815260200190815260200160002090508060000160009054906101000a900473ffffffffffffffffffffffffffffffffffffffff1673ffffffffffffffffffffffffffffffffffffffff163373ffffffffffffffffffffffffffffffffffffffff1614611333576040517f08c379a000000000000000000000000000000000000000000000000000000000815260040161132a90612b49565b60405180910390fd5b806006015442111561137a576040517f08c379a000000000000000000000000000000000000000000000000000000000815260040161137190612bb5565b60405180910390fd5b8060030154600282600401546113909190612630565b10156113d1576040517f08c379a00000000000000000000000000000000000000000000000000000000081526004016113c890612c21565b60405180910390fd5b8060040154821015611418576040517f08c379a000000000000000000000000000000000000000000000000000000000815260040161140f90612cb3565b60405180910390fd5b8060030154821061145e576040517f08c379a000000000000000000000000000000000000000000000000000000000815260040161145590612d1f565b60405180910390fd5b818160030181905550505050565b6060600360008373ffffffffffffffffffffffffffffffffffffffff1673ffffffffffffffffffffffffffffffffffffffff16815260200190815260200160002080546114b8906123b4565b80601f01602080910402602001604051908101604052809291908181526020018280546114e4906123b4565b80156115315780601f1061150657610100808354040283529160200191611531565b820191906000526020600020905b81548152906001019060200180831161151457829003601f168201915b50505050509050919050565b6003602052806000526040600020600091509050805461155c906123b4565b80601f0160208091040260200160405190810160405280929190818152602001828054611588906123b4565b80156115d55780601f106115aa576101008083540402835291602001916115d5565b820191906000526020600020905b8154815290600101906020018083116115b857829003601f168201915b505050505081565b60026020528060005260406000206000915090505481565b6000808381526020019081526020016000206006015442111561164d576040517f08c379a000000000000000000000000000000000000000000000000000000000815260040161164490612d8b565b60405180910390fd5b60003411611690576040517f08c379a000000000000000000000000000000000000000000000000000000000815260040161168790612df7565b60405180910390fd5b6001600083815260200190815260200160002060405180608001604052803373ffffffffffffffffffffffffffffffffffffffff16815260200134815260200183815260200160001515815250908060018154018082558091505060019003906000526020600020906004020160009091909190915060008201518160000160006101000a81548173ffffffffffffffffffffffffffffffffffffffff021916908373ffffffffffffffffffffffffffffffffffffffff160217905550602082015181600101556040820151816002015560608201518160030160006101000a81548160ff02191690831515021790555050507f271dec505c61c970bdd791a963b7162d814edf6292f40c4beef2af1e48eea1e8823334846040516117b89493929190612e17565b60405180910390a15050565b6000808281526020019081526020016000206006015442111561181c576040517f08c379a000000000000000000000000000000000000000000000000000000000815260040161181390612d8b565b60405180910390fd5b6000341161185f576040517f08c379a000000000000000000000000000000000000000000000000000000000815260040161185690612ea8565b60405180910390fd5b3460008083815260200190815260200160002060040160008282546118849190612672565b9250508190555034600260003373ffffffffffffffffffffffffffffffffffffffff1673ffffffffffffffffffffffffffffffffffffffff16815260200190815260200160002060008282546118da9190612672565b92505081905550678ac7230489e80000600260003373ffffffffffffffffffffffffffffffffffffffff1673ffffffffffffffffffffffffffffffffffffffff16815260200190815260200160002054106119b6576040518060400160405280600481526020017f476f6c6400000000000000000000000000000000000000000000000000000000815250600360003373ffffffffffffffffffffffffffffffffffffffff1673ffffffffffffffffffffffffffffffffffffffff16815260200190815260200160002090816119b09190612852565b50611b5e565b674563918244f40000600260003373ffffffffffffffffffffffffffffffffffffffff1673ffffffffffffffffffffffffffffffffffffffff1681526020019081526020016000205410611a8b576040518060400160405280600681526020017f53696c7665720000000000000000000000000000000000000000000000000000815250600360003373ffffffffffffffffffffffffffffffffffffffff1673ffffffffffffffffffffffffffffffffffffffff1681526020019081526020016000209081611a859190612852565b50611b5d565b671bc16d674ec80000600260003373ffffffffffffffffffffffffffffffffffffffff1673ffffffffffffffffffffffffffffffffffffffff1681526020019081526020016000205410611b5c576040518060400160405280600681526020017f42726f6e7a650000000000000000000000000000000000000000000000000000815250600360003373ffffffffffffffffffffffffffffffffffffffff1673ffffffffffffffffffffffffffffffffffffffff1681526020019081526020016000209081611b5a9190612852565b505b5b5b7f38c48552690c96ec2872092ac1db6c19fb59f5a8c5b49bbf41ed4886d0ca6926813334604051611b9193929190612ec8565b60405180910390a150565b600560009054906101000a900473ffffffffffffffffffffffffffffffffffffffff1681565b6040518060e00160405280600073ffffffffffffffffffffffffffffffffffffffff16815260200160608152602001606081526020016000815260200160008152602001600015158152602001600081525090565b600081519050919050565b600082825260208201905092915050565b6000819050602082019050919050565b600073ffffffffffffffffffffffffffffffffffffffff82169050919050565b6000611c6e82611c43565b9050919050565b611c7e81611c63565b82525050565b600081519050919050565b600082825260208201905092915050565b60005b83811015611cbe578082015181840152602081019050611ca3565b60008484015250505050565b6000601f19601f8301169050919050565b6000611ce682611c84565b611cf08185611c8f565b9350611d00818560208601611ca0565b611d0981611cca565b840191505092915050565b6000819050919050565b611d2781611d14565b82525050565b60008115159050919050565b611d4281611d2d565b82525050565b600060e083016000830151611d606000860182611c75565b5060208301518482036020860152611d788282611cdb565b91505060408301518482036040860152611d928282611cdb565b9150506060830151611da76060860182611d1e565b506080830151611dba6080860182611d1e565b5060a0830151611dcd60a0860182611d39565b5060c0830151611de060c0860182611d1e565b508091505092915050565b6000611df78383611d48565b905092915050565b6000602082019050919050565b6000611e1782611c17565b611e218185611c22565b935083602082028501611e3385611c33565b8060005b85811015611e6f5784840389528151611e508582611deb565b9450611e5b83611dff565b925060208a01995050600181019050611e37565b50829750879550505050505092915050565b60006020820190508181036000830152611e9b8184611e0c565b905092915050565b611eac81611d14565b82525050565b6000602082019050611ec76000830184611ea3565b92915050565b6000604051905090565b600080fd5b600080fd5b611eea81611d14565b8114611ef557600080fd5b50565b600081359050611f0781611ee1565b92915050565b600060208284031215611f2357611f22611ed7565b5b6000611f3184828501611ef8565b91505092915050565b600080fd5b600080fd5b7f4e487b7100000000000000000000000000000000000000000000000000000000600052604160045260246000fd5b611f7c82611cca565b810181811067ffffffffffffffff82111715611f9b57611f9a611f44565b5b80604052505050565b6000611fae611ecd565b9050611fba8282611f73565b919050565b600067ffffffffffffffff821115611fda57611fd9611f44565b5b611fe382611cca565b9050602081019050919050565b82818337600083830152505050565b600061201261200d84611fbf565b611fa4565b90508281526020810184848401111561202e5761202d611f3f565b5b612039848285611ff0565b509392505050565b600082601f83011261205657612055611f3a565b5b8135612066848260208601611fff565b91505092915050565b6000806000806080858703121561208957612088611ed7565b5b600085013567ffffffffffffffff8111156120a7576120a6611edc565b5b6120b387828801612041565b945050602085013567ffffffffffffffff8111156120d4576120d3611edc565b5b6120e087828801612041565b93505060406120f187828801611ef8565b925050606061210287828801611ef8565b91505092959194509250565b6000806040838503121561212557612124611ed7565b5b600061213385828601611ef8565b925050602061214485828601611ef8565b9150509250929050565b61215781611c63565b82525050565b61216681611d2d565b82525050565b6000608082019050612181600083018761214e565b61218e6020830186611ea3565b61219b6040830185611ea3565b6121a8606083018461215d565b95945050505050565b600082825260208201905092915050565b60006121cd82611c84565b6121d781856121b1565b93506121e7818560208601611ca0565b6121f081611cca565b840191505092915050565b600060e082019050612210600083018a61214e565b818103602083015261222281896121c2565b9050818103604083015261223681886121c2565b90506122456060830187611ea3565b6122526080830186611ea3565b61225f60a083018561215d565b61226c60c0830184611ea3565b98975050505050505050565b61228181611c63565b811461228c57600080fd5b50565b60008135905061229e81612278565b92915050565b6000602082840312156122ba576122b9611ed7565b5b60006122c88482850161228f565b91505092915050565b600060208201905081810360008301526122eb81846121c2565b905092915050565b6000602082019050612308600083018461214e565b92915050565b7f4e487b7100000000000000000000000000000000000000000000000000000000600052601160045260246000fd5b600061234882611d14565b91507fffffffffffffffffffffffffffffffffffffffffffffffffffffffffffffffff820361237a5761237961230e565b5b600182019050919050565b7f4e487b7100000000000000000000000000000000000000000000000000000000600052602260045260246000fd5b600060028204905060018216806123cc57607f821691505b6020821081036123df576123de612385565b5b50919050565b7f4e487b7100000000000000000000000000000000000000000000000000000000600052603260045260246000fd5b7f4f6e6c792061646d696e2063616e206d61726b20737563636573730000000000600082015250565b600061244a601b836121b1565b915061245582612414565b602082019050919050565b600060208201905081810360008301526124798161243d565b9050919050565b7f46756e64696e672074696d65206f766572000000000000000000000000000000600082015250565b60006124b66011836121b1565b91506124c182612480565b602082019050919050565b600060208201905081810360008301526124e5816124a9565b9050919050565b7f546172676574206e6f7420726561636865640000000000000000000000000000600082015250565b60006125226012836121b1565b915061252d826124ec565b602082019050919050565b6000602082019050818103600083015261255181612515565b9050919050565b7f50726f6a65637420737563636565646564000000000000000000000000000000600082015250565b600061258e6011836121b1565b915061259982612558565b602082019050919050565b600060208201905081810360008301526125bd81612581565b9050919050565b7f46756e64696e6720706572696f64206e6f74206f766572000000000000000000600082015250565b60006125fa6017836121b1565b9150612605826125c4565b602082019050919050565b60006020820190508181036000830152612629816125ed565b9050919050565b600061263b82611d14565b915061264683611d14565b925082820261265481611d14565b9150828204841483151761266b5761266a61230e565b5b5092915050565b600061267d82611d14565b915061268883611d14565b92508282019050808211156126a05761269f61230e565b5b92915050565b60008190508160005260206000209050919050565b60006020601f8301049050919050565b600082821b905092915050565b6000600883026127087fffffffffffffffffffffffffffffffffffffffffffffffffffffffffffffffff826126cb565b61271286836126cb565b95508019841693508086168417925050509392505050565b6000819050919050565b600061274f61274a61274584611d14565b61272a565b611d14565b9050919050565b6000819050919050565b61276983612734565b61277d61277582612756565b8484546126d8565b825550505050565b600090565b612792612785565b61279d818484612760565b505050565b5b818110156127c1576127b660008261278a565b6001810190506127a3565b5050565b601f821115612806576127d7816126a6565b6127e0846126bb565b810160208510156127ef578190505b6128036127fb856126bb565b8301826127a2565b50505b505050565b600082821c905092915050565b60006128296000198460080261280b565b1980831691505092915050565b60006128428383612818565b9150826002028217905092915050565b61285b82611c84565b67ffffffffffffffff81111561287457612873611f44565b5b61287e82546123b4565b6128898282856127c5565b600060209050601f8311600181146128bc57600084156128aa578287015190505b6128b48582612836565b86555061291c565b601f1984166128ca866126a6565b60005b828110156128f2578489015182556001820191506020850194506020810190506128cd565b8683101561290f578489015161290b601f891682612818565b8355505b6001600288020188555050505b505050505050565b60006040820190506129396000830185611ea3565b612946602083018461214e565b9392505050565b7f4f6e6c79207468652063726561746f722063616e207769746864726177000000600082015250565b6000612983601d836121b1565b915061298e8261294d565b602082019050919050565b600060208201905081810360008301526129b281612976565b9050919050565b7f49646561206e6f74206d61726b6564207375636365737366756c000000000000600082015250565b60006129ef601a836121b1565b91506129fa826129b9565b602082019050919050565b60006020820190508181036000830152612a1e816129e2565b9050919050565b7f546172676574206e6f74206d6574000000000000000000000000000000000000600082015250565b6000612a5b600e836121b1565b9150612a6682612a25565b602082019050919050565b60006020820190508181036000830152612a8a81612a4e565b9050919050565b7f50726f6a656374206661696c6564000000000000000000000000000000000000600082015250565b6000612ac7600e836121b1565b9150612ad282612a91565b602082019050919050565b60006020820190508181036000830152612af681612aba565b9050919050565b7f4f6e6c792063726561746f722063616e206d6f64696679207461726765740000600082015250565b6000612b33601e836121b1565b9150612b3e82612afd565b602082019050919050565b60006020820190508181036000830152612b6281612b26565b9050919050565b7f43616e2774206c6f77657220616674657220646561646c696e65000000000000600082015250565b6000612b9f601a836121b1565b9150612baa82612b69565b602082019050919050565b60006020820190508181036000830152612bce81612b92565b9050919050565b7f4174206c6561737420353025206d757374206265207261697365640000000000600082015250565b6000612c0b601b836121b1565b9150612c1682612bd5565b602082019050919050565b60006020820190508181036000830152612c3a81612bfe565b9050919050565b7f4e657720746172676574206d757374206265203e3d2063757272656e7420726160008201527f6973656420616d6f756e74000000000000000000000000000000000000000000602082015250565b6000612c9d602b836121b1565b9150612ca882612c41565b604082019050919050565b60006020820190508181036000830152612ccc81612c90565b9050919050565b7f5461726765742063616e206f6e6c79206265206c6f7765726564000000000000600082015250565b6000612d09601a836121b1565b9150612d1482612cd3565b602082019050919050565b60006020820190508181036000830152612d3881612cfc565b9050919050565b7f46756e64696e6720706572696f6420656e646564000000000000000000000000600082015250565b6000612d756014836121b1565b9150612d8082612d3f565b602082019050919050565b60006020820190508181036000830152612da481612d68565b9050919050565b7f496e766573746d656e7420726571756972656400000000000000000000000000600082015250565b6000612de16013836121b1565b9150612dec82612dab565b602082019050919050565b60006020820190508181036000830152612e1081612dd4565b9050919050565b6000608082019050612e2c6000830187611ea3565b612e39602083018661214e565b612e466040830185611ea3565b612e536060830184611ea3565b95945050505050565b7f4d7573742073656e642045544800000000000000000000000000000000000000600082015250565b6000612e92600d836121b1565b9150612e9d82612e5c565b602082019050919050565b60006020820190508181036000830152612ec181612e85565b9050919050565b6000606082019050612edd6000830186611ea3565b612eea602083018561214e565b612ef76040830184611ea3565b94935050505056fea2646970667358221220f7d35eacd60a229aa802944229afab7179c5fabf77d0d75044f55b273efc442864736f6c634300081c0033",
  "linkReferences": {},
  "deployedLinkReferences": {}
}